{
  "contractName": "Buyer",
  "abi": [
    {
      "inputs": [
        {
          "internalType": "uint256",
          "name": "",
          "type": "uint256"
        }
      ],
      "name": "buyers",
      "outputs": [
        {
          "internalType": "address",
          "name": "",
          "type": "address"
        }
      ],
      "stateMutability": "view",
      "type": "function",
      "constant": true
    },
    {
      "inputs": [
        {
          "internalType": "uint256",
          "name": "propertyId",
          "type": "uint256"
        }
      ],
      "name": "buy",
      "outputs": [
        {
          "internalType": "uint256",
          "name": "",
          "type": "uint256"
        }
      ],
      "stateMutability": "nonpayable",
      "type": "function"
    },
    {
      "inputs": [],
      "name": "getBuyers",
      "outputs": [
        {
          "internalType": "address[100]",
          "name": "",
          "type": "address[100]"
        }
      ],
      "stateMutability": "view",
      "type": "function",
      "constant": true
    }
  ],
  "bytecode": "0x608060405234801561001057600080fd5b50610430806100206000396000f3fe608060405234801561001057600080fd5b50600436106100415760003560e01c8063d96a094a14610046578063f2aa821814610076578063f64bfaba146100a6575b600080fd5b610060600480360381019061005b9190610251565b6100c4565b60405161006d919061028d565b60405180910390f35b610090600480360381019061008b9190610251565b61013c565b60405161009d91906102e9565b60405180910390f35b6100ae610172565b6040516100bb91906103af565b60405180910390f35b60008082101580156100d7575060638211155b6100e057600080fd5b33600083606481106100f5576100f46103cb565b5b0160006101000a81548173ffffffffffffffffffffffffffffffffffffffff021916908373ffffffffffffffffffffffffffffffffffffffff160217905550819050919050565b6000816064811061014c57600080fd5b016000915054906101000a900473ffffffffffffffffffffffffffffffffffffffff1681565b61017a6101f3565b60006064806020026040519081016040528092919082606480156101e9576020028201915b8160009054906101000a900473ffffffffffffffffffffffffffffffffffffffff1673ffffffffffffffffffffffffffffffffffffffff168152602001906001019080831161019f575b5050505050905090565b60405180610c800160405280606490602082028036833780820191505090505090565b600080fd5b6000819050919050565b61022e8161021b565b811461023957600080fd5b50565b60008135905061024b81610225565b92915050565b60006020828403121561026757610266610216565b5b60006102758482850161023c565b91505092915050565b6102878161021b565b82525050565b60006020820190506102a2600083018461027e565b92915050565b600073ffffffffffffffffffffffffffffffffffffffff82169050919050565b60006102d3826102a8565b9050919050565b6102e3816102c8565b82525050565b60006020820190506102fe60008301846102da565b92915050565b600060649050919050565b600081905092915050565b6000819050919050565b61032d816102c8565b82525050565b600061033f8383610324565b60208301905092915050565b6000602082019050919050565b61036181610304565b61036b818461030f565b92506103768261031a565b8060005b838110156103a757815161038e8782610333565b96506103998361034b565b92505060018101905061037a565b505050505050565b6000610c80820190506103c56000830184610358565b92915050565b7f4e487b7100000000000000000000000000000000000000000000000000000000600052603260045260246000fdfea26469706673582212209afe2a3bd2951ff81618fc1179df553b7cd5b0f5eeabb8447370c1ac2d1ecd5864736f6c63430008090033",
  "immutableReferences": {},
  "source": "// SPDX-License-Identifier: MIT\r\npragma solidity 0.8.9;\r\n\r\ncontract Buyer {\r\n    address[100] public buyers;\r\n\r\n    // Buying a property\r\n    function buy(uint256 propertyId) public returns (uint256) {\r\n        require(propertyId >= 0 && propertyId <= 99);\r\n\r\n        buyers[propertyId] = msg.sender;\r\n\r\n        return propertyId;\r\n    }\r\n\r\n    // Retrieving the buyers\r\n    function getBuyers() public view returns (address[100] memory) {\r\n        return buyers;\r\n    }\r\n}\r\n",
  "sourcePath": "C:\\Users\\razor\\Desktop\\github\\buy-property\\contracts\\Buyer.sol",
  "compiler": {
    "name": "solc",
    "version": "0.8.9+commit.e5eed63a.Emscripten.clang"
  },
  "schemaVersion": "3.4.7",
  "updatedAt": "2022-04-24T16:33:02.639Z",
  "networkType": "ethereum",
  "devdoc": {
    "kind": "dev",
    "methods": {},
    "version": 1
  },
  "userdoc": {
    "kind": "user",
    "methods": {},
    "version": 1
  }
}